{
  "contractName": "HashList",
  "abi": [
    {
      "inputs": [],
      "payable": false,
      "stateMutability": "nonpayable",
      "type": "constructor"
    },
    {
      "constant": true,
      "inputs": [],
      "name": "hashCount",
      "outputs": [
        {
          "internalType": "uint256",
          "name": "",
          "type": "uint256"
        }
      ],
      "payable": false,
      "stateMutability": "view",
      "type": "function"
    },
    {
      "constant": true,
      "inputs": [
        {
          "internalType": "uint256",
          "name": "",
          "type": "uint256"
        }
      ],
      "name": "hash_table",
      "outputs": [
        {
          "internalType": "uint256",
          "name": "id",
          "type": "uint256"
        },
        {
          "internalType": "string",
          "name": "hash_data",
          "type": "string"
        }
      ],
      "payable": false,
      "stateMutability": "view",
      "type": "function"
    },
    {
      "constant": false,
      "inputs": [
        {
          "internalType": "string",
          "name": "_content",
          "type": "string"
        }
      ],
      "name": "createHash",
      "outputs": [],
      "payable": false,
      "stateMutability": "nonpayable",
      "type": "function"
    }
  ],
  "bytecode": "0x60806040526000805534801561001457600080fd5b506100596040518060400160405280600b81526020017f48656c6c6f20576f726c6400000000000000000000000000000000000000000081525061005e60201b60201c565b61016c565b6000808154809291906001019190505550604051806040016040528060005481526020018281525060016000805481526020019081526020016000206000820151816000015560208201518160010190805190602001906100c09291906100c7565b5090505050565b828054600181600116156101000203166002900490600052602060002090601f016020900481019282601f1061010857805160ff1916838001178555610136565b82800160010185558215610136579182015b8281111561013557825182559160200191906001019061011a565b5b5090506101439190610147565b5090565b61016991905b8082111561016557600081600090555060010161014d565b5090565b90565b6103d28061017b6000396000f3fe608060405234801561001057600080fd5b50600436106100415760003560e01c80635bebd9d714610046578063a7ff194714610064578063dd3fd0f414610112575b600080fd5b61004e6101cd565b6040518082815260200191505060405180910390f35b6100906004803603602081101561007a57600080fd5b81019080803590602001909291905050506101d3565b6040518083815260200180602001828103825283818151815260200191508051906020019080838360005b838110156100d65780820151818401526020810190506100bb565b50505050905090810190601f1680156101035780820380516001836020036101000a031916815260200191505b50935050505060405180910390f35b6101cb6004803603602081101561012857600080fd5b810190808035906020019064010000000081111561014557600080fd5b82018360208201111561015757600080fd5b8035906020019184600183028401116401000000008311171561017957600080fd5b91908080601f016020809104026020016040519081016040528093929190818152602001838380828437600081840152601f19601f82011690508083019250505050505050919291929050505061028f565b005b60005481565b6001602052806000526040600020600091509050806000015490806001018054600181600116156101000203166002900480601f0160208091040260200160405190810160405280929190818152602001828054600181600116156101000203166002900480156102855780601f1061025a57610100808354040283529160200191610285565b820191906000526020600020905b81548152906001019060200180831161026857829003601f168201915b5050505050905082565b6000808154809291906001019190505550604051806040016040528060005481526020018281525060016000805481526020019081526020016000206000820151816000015560208201518160010190805190602001906102f19291906102f8565b5090505050565b828054600181600116156101000203166002900490600052602060002090601f016020900481019282601f1061033957805160ff1916838001178555610367565b82800160010185558215610367579182015b8281111561036657825182559160200191906001019061034b565b5b5090506103749190610378565b5090565b61039a91905b8082111561039657600081600090555060010161037e565b5090565b9056fea265627a7a72315820a26600e2e294ca7ea5ee9e544c422e5df3e83045c590bad14656d366ff8eabe064736f6c63430005100032",
  "source": "pragma solidity ^0.5.0;\n\ncontract HashList {\n    \n    //Keeps track of the number of hashes stored in the smart contact\n    uint public hashCount = 0;\n\n    /*\n    * A data structure defining the what makes up a hash\n    *\n    *   id - is the id of the hash\n    *   hash_data - is the actual hash string\n    */\n    struct Hash\n    {\n        uint id;\n        string hash_data;\n    }\n\n    //The hash table stores all the hash values\n    mapping(uint => Hash) public hash_table;\n\n    //The constructor is just creating a 'hello world' hash for testing\n    constructor() public {\n        createHash(\"Hello World\");\n    }\n\n    //A smart contract function to create hashes\n    function createHash(string memory _content) public {\n        hashCount ++;\n        hash_table[hashCount] = Hash(hashCount, _content);\n    }\n}",
  "sourcePath": "/Users/tuannguyen/Desktop/fluidity/uni-blockchain2/contract/contracts/HashList.sol",
  "compiler": {
    "name": "solc",
    "version": "0.5.16+commit.9c3226ce.Emscripten.clang"
  },
  "schemaVersion": "3.4.3",
  "updatedAt": "2021-09-16T22:07:35.182Z",
  "networkType": "ethereum",
  "devdoc": {
    "methods": {}
  },
  "userdoc": {
    "methods": {}
  }
}