{
  "contractName": "HashList",
  "abi": [
    {
      "inputs": [],
      "payable": false,
      "stateMutability": "nonpayable",
      "type": "constructor"
    },
    {
      "constant": true,
      "inputs": [],
      "name": "hashCount",
      "outputs": [
        {
          "internalType": "uint256",
          "name": "",
          "type": "uint256"
        }
      ],
      "payable": false,
      "stateMutability": "view",
      "type": "function"
    },
    {
      "constant": true,
      "inputs": [
        {
          "internalType": "uint256",
          "name": "",
          "type": "uint256"
        }
      ],
      "name": "hash_table",
      "outputs": [
        {
          "internalType": "uint256",
          "name": "id",
          "type": "uint256"
        },
        {
          "internalType": "string",
          "name": "hash_data",
          "type": "string"
        }
      ],
      "payable": false,
      "stateMutability": "view",
      "type": "function"
    },
    {
      "constant": false,
      "inputs": [
        {
          "internalType": "string",
          "name": "_content",
          "type": "string"
        }
      ],
      "name": "createHash",
      "outputs": [],
      "payable": false,
      "stateMutability": "nonpayable",
      "type": "function"
    }
  ],
  "bytecode": "0x60806040526000805534801561001457600080fd5b5060408051808201909152600b81526a12195b1b1bc815dbdc9b1960aa1b6020820152610049906001600160e01b0361004e16565b610135565b600080546001908101808355604080518082018252828152602080820187815293865284815291909420845181559151805192936100949390850192919091019061009a565b50505050565b828054600181600116156101000203166002900490600052602060002090601f016020900481019282601f106100db57805160ff1916838001178555610108565b82800160010185558215610108579182015b828111156101085782518255916020019190600101906100ed565b50610114929150610118565b5090565b61013291905b80821115610114576000815560010161011e565b90565b61036c806101446000396000f3fe608060405234801561001057600080fd5b50600436106100415760003560e01c80635bebd9d714610046578063a7ff194714610060578063dd3fd0f4146100fc575b600080fd5b61004e6101a4565b60408051918252519081900360200190f35b61007d6004803603602081101561007657600080fd5b50356101aa565b6040518083815260200180602001828103825283818151815260200191508051906020019080838360005b838110156100c05781810151838201526020016100a8565b50505050905090810190601f1680156100ed5780820380516001836020036101000a031916815260200191505b50935050505060405180910390f35b6101a26004803603602081101561011257600080fd5b81019060208101813564010000000081111561012d57600080fd5b82018360208201111561013f57600080fd5b8035906020019184600183028401116401000000008311171561016157600080fd5b91908080601f016020809104026020016040519081016040528093929190818152602001838380828437600092019190915250929550610250945050505050565b005b60005481565b600160208181526000928352604092839020805481840180548651600296821615610100026000190190911695909504601f810185900485028601850190965285855290949193929091908301828280156102465780601f1061021b57610100808354040283529160200191610246565b820191906000526020600020905b81548152906001019060200180831161022957829003601f168201915b5050505050905082565b600080546001908101808355604080518082018252828152602080820187815293865284815291909420845181559151805192936102969390850192919091019061029c565b50505050565b828054600181600116156101000203166002900490600052602060002090601f016020900481019282601f106102dd57805160ff191683800117855561030a565b8280016001018555821561030a579182015b8281111561030a5782518255916020019190600101906102ef565b5061031692915061031a565b5090565b61033491905b808211156103165760008155600101610320565b9056fea265627a7a72315820eff3b7ea572abc3f54a51fc2b8f1d82883841d067b00e3fcc0c2fd7bc6272cac64736f6c63430005100032",
  "source": "pragma solidity ^0.5.0;\r\n\r\ncontract HashList {\r\n    \r\n    //Keeps track of the number of hashes stored in the smart contact\r\n    uint public hashCount = 0;\r\n\r\n    /*\r\n    * A data structure defining the what makes up a hash\r\n    *\r\n    *   id - is the id of the hash\r\n    *   hash_data - is the actual hash string\r\n    */\r\n    struct Hash\r\n    {\r\n        uint id;\r\n        string hash_data;\r\n    }\r\n\r\n    //The hash table stores all the hash values\r\n    mapping(uint => Hash) public hash_table;\r\n\r\n    //The constructor is just creating a 'hello world' hash for testing\r\n    constructor() public {\r\n        createHash(\"Hello World\");\r\n    }\r\n\r\n    //A smart contract function to create hashes\r\n    function createHash(string memory _content) public {\r\n        hashCount ++;\r\n        hash_table[hashCount] = Hash(hashCount, _content);\r\n    }\r\n}",
  "sourcePath": "/Users/tuannguyen/Desktop/fluidity/uni-blockchain2/contracts/HashList.sol",
  "compiler": {
    "name": "solc",
    "version": "0.5.16+commit.9c3226ce.Emscripten.clang"
  },
  "schemaVersion": "3.4.3",
  "updatedAt": "2021-09-16T10:11:07.870Z",
  "devdoc": {
    "methods": {}
  },
  "userdoc": {
    "methods": {}
  }
}